:100000000C94C5000C94E2000C94E2000C94E20005
:100010000C94E2000C94E2000C94E2000C94E200D8
:100020000C94E2000C94E2000C94E2000C94E200C8
:100030000C94E2000C94E2000C94E2000C94E200B8
:100040000C94E2000C94E2000C94E2000C94E200A8
:100050000C94E200A80AB90ADE0A560B560B560B9E
:10006000560B560BCF0AD40AED0A560B560B560BFD
:10007000560BCA0AE30AE80AFC0A560B560B560B43
:10008000560BD90AF20AF70A010B560B560B560B00
:10009000560B560B560B560B560B560B560B560B58
:1000A000560B560B560B560B560B560B560B560B48
:1000B000560B560B560B560B560B560B560B560B38
:1000C000560B560B560B560B560B560B560B560B28
:1000D000560B560B560B560B560B560B560B560B18
:1000E000560B560B560B560B560B560B560B560B08
:1000F000560B560B560B560B560B560B560B560BF8
:10010000560B560B560B560B560B560B560B560BE7
:10011000560B560B560B560B560B560B560B560BD7
:10012000560B560B560B560B560B560B560B560BC7
:10013000560B560B560B560B560B560B560B560BB7
:10014000560B560B560B560B560B560B560B560BA7
:10015000560B060B060B060B060B560B560B560BD7
:10016000560B060B060B060B060B560B560B560BC7
:10017000560B060B060B060B060B560B560B560BB7
:10018000560B060B060B060B060B11241FBECFE504
:10019000D8E0DEBFCDBF13E0A0E6B0E0E4ECF8E1CC
:1001A00002C005900D92A039B107D9F724E0A0E96B
:1001B000B3E001C01D92AD38B207E1F70E940C0414
:1001C0000C94600C0C9400009BB3282F207F9F7030
:1001D000922B9BBBDA98DB9AE7ECF0E03197F1F7D2
:1001E00000C00000DB98EFE1F3E03197F1F700C0C9
:1001F00000002BB3F0E18F9FC0011124922F9F705C
:10020000892B8BBBDB9A87EC90E00197F1F700C05C
:100210000000DB9808959BB3282F207F9F70922BBE
:100220009BBBDA9ADB9AE7ECF0E03197F1F700C07C
:100230000000DB98EFE3FFE13197F1F700C0000029
:100240002BB3F0E18F9FC0011124922F9F70892B57
:100250008BBBDB9A8FE39FE10197F1F700C00000B1
:10026000DB9808958CEF8ABBDB982FEF83EC99E045
:10027000215080409040E1F700C0000083E30E94DD
:10028000E4002FEF89EF90E0215080409040E1F7AB
:1002900000C0000082E30E94E4002FEF89EF90E0AD
:1002A000215080409040E1F700C0000088E20E94A9
:1002B000E4002FEF89EF90E0215080409040E1F77B
:1002C00000C000008EE00E94E4002FEF89EF90E074
:1002D000215080409040E1F700C0000081E00E9482
:1002E000E4002FEF89EF90E0215080409040E1F74B
:1002F00000C00000089581E00E94E4008FE39FE1C8
:100300000197F1F700C0000008951F93CF93DF938A
:10031000EC018881882381F010E00E940B011F5FAF
:100320008FE19EE40197F1F700C00000FE01E10FAC
:10033000F11D80818111F1CFDF91CF911F9108953F
:10034000813029F4862F81580E94E400089582307C
:1003500021F4862F81540E94E4000895CF93DF9307
:10036000C82FDDEC8D9FD12D1124D695D695D6952D
:100370008D2F805D0E940B01DD0F8D2F880F880F60
:10038000D80F8C2F8D1B805D0E940B01DF91CF91C8
:10039000089584E287BB8CEF81BB08958FE084BB16
:1003A0002FEF89EF90E0215080409040E1F700C0AE
:1003B00000008FEF85BB2FEF89EF90E02150804048
:1003C0009040E1F700C0000013BA2FEF89EF90E0F2
:1003D000215080409040E1F700C00000089588E17E
:1003E0008AB986E880BD87E689B908955D9BFECF0E
:1003F0008CB908951F93CF93DF93EC0188818823F4
:1004000081F010E00E94F6011F5F8FE19EE40197EA
:10041000F1F700C00000FE01E10FF11D80818111A4
:10042000F1CFDF91CF911F9108950E94EF010E94BB
:100430007B0182E690E00E94850161E082E00E94FB
:10044000A00182E790E00E94850184E890E00E948C
:10045000FA012FEF8FE097E2215080409040E1F7C2
:1004600000C0000089E890E00E94FA012FEF8FE0C1
:1004700097E2215080409040E1F700C0000080E901
:1004800090E00E94FA012FEF8FE097E22150804028
:100490009040E1F700C000008CE990E00E94FA0172
:1004A0002FEF8FE097E2215080409040E1F700C0AD
:1004B000000087EB90E00E94FA0180918B0481306C
:1004C00021F48BED90E00E94FA0180918C04813040
:1004D00021F48EEE90E00E94FA0180917604813042
:1004E00021F487E191E00E94FA0180916304813058
:1004F00021F489EE90E00E94FA0180918A04813013
:1005000021F48BEF90E00E94FA0180916504813024
:1005100021F483E191E00E94FA01809191038130FE
:1005200021F48EE091E00E94FA018AE10E94F60136
:100530000E947B0185E291E00E94850161E082E0FA
:100540000E94A00185E391E00E9485012FEF8DE3D9
:1005500099E4215080409040E1F700C000000895E8
:100560000E94EF0184E890E00E94FA012FEF8FE0F3
:1005700097E2215080409040E1F700C0000089E8F8
:1005800090E00E94FA012FEF8FE097E22150804027
:100590009040E1F700C000000E947B0185E491E0FB
:1005A0000E94FA018BE491E00E9485012FEF8FE019
:1005B00097E2215080409040E1F700C0000008958C
:1005C00080E882BB86B3837180936104089580ECD8
:1005D00082BB86B3837180936104089580EA82BBF5
:1005E00086B3837180936104089580EE82BB86B3E5
:1005F00083718093610408950E947B0186E691E0F7
:100600000E948501929A2FEF8FE493EC2150804055
:100610009040E1F700C00000929808950E947B018D
:1006200083E791E00E948501939A2FEF8FE493EC8A
:10063000215080409040E1F700C000009398089559
:10064000979A2FEF81EE94E0215080409040E1F79F
:1006500000C0000097982FEF81EE94E02150804079
:100660009040E1F700C00000089584EF91E0979A70
:10067000E3E0F1E03197F1F700C000009798FAEB62
:10068000FA95F1F700C0019791F7089584EF91E092
:10069000979AEFE3F1E03197F1F700C000009798E7
:1006A000FAE6FA95F1F700C0019791F7089584EF03
:1006B00091E0979AE7E6F1E03197F1F700C000008A
:1006C0009798F5E3FA95F1F70000019791F70895EF
:1006D0008EE1979A2FEF3DEE92E02150304090400E
:1006E000E1F700C0000097982FEF3DEE92E0215017
:1006F00030409040E1F700C00000979A2FEF3DEEA8
:1007000092E0215030409040E1F700C000009798FF
:100710002FEF3DEE92E0215030409040E1F700C0D5
:100720000000979A2FEF3DEE92E02150304090402C
:10073000E1F700C0000097982FEF3BED95E02150C6
:1007400030409040E1F700C00000815011F608955C
:100750001FBA1EBAE199FECF8DBBE29AE19A0895C5
:1007600025E030E03FBB2EBBE199FECF8DBBE29A86
:10077000E19A08951FBA1EBAE199FECFE09A8DB3AF
:10078000089585E090E09FBB8EBBE199FECFE09A93
:100790008DB380937704089540E0842F90E09C010E
:1007A000205F3F4F3FBB2EBBE199FECFE09A2DB3B8
:1007B000FC01EA59FB4F20832FEF80E792E02150A4
:1007C00080409040E1F700C000004F5F80917704C7
:1007D000841718F70895809193038823E1F040E08F
:1007E000842F90E09C01205F3F4F3FBB2EBBE199DF
:1007F000FECFFC01EA59FB4F80818DBBE29AE19A62
:100800008FE39CE90197F1F700C000004F5F8091F2
:100810009303481728F308951092910310926504EA
:1008200010928A04109263041092760410928C0441
:1008300010928B040E9432012FEF89EF90E021503B
:1008400080409040E1F700C000000E94EF010E944C
:10085000C901109292032FEF89EF90E02150804060
:100860009040E1F700C000008EE00E94E40080911B
:10087000900381111AC085E292E00E94850161E037
:1008800082E00E94A0018EEA91E00E9485012FEF94
:1008900083ED90E3215080409040E1F700C00000DC
:1008A000809190038F5F80939003109262040E9466
:1008B0005C040E949A0AFBCFCF93DF9387E886B946
:1008C00080EE87B98CE00E94E4000E947B018FEBF0
:1008D00091E00E94850164E082E00E94A0018FEC1B
:1008E00091E00E9485016BE082E00E94A0018FED03
:1008F0000E940B0183E40E940B01D0E2369A349BE4
:10090000FECFC5B1CA3088F569E082E00E94A0013F
:100910008C2F805D0E940B010E947B0185ED91E090
:100920000E94850161E082E00E94A00186EE91E0D4
:100930000E9485012FEF8BE49DE121508040904083
:10094000E1F700C000000E940C04D2BB01C012BA43
:1009500069E082E00E94A0018C2F0E94AE0186B364
:10096000837986BB882351F203C0CE3170F7EFCF75
:10097000DF91CF9108950E947B0182B3837082BB87
:100980000E94CE018CE00E94E400109279040E9443
:10099000BA038093640490919503943009F476C06F
:1009A000953019F0853009F471C085E00E94A803E4
:1009B0000E94BA03809364041092950310929403EA
:1009C0000E947B018CE00E94E40086EF91E00E948F
:1009D00085012FEF83EC99E0215080409040E1F7B2
:1009E00000C0000061E082E00E94A0010E940906B0
:1009F000809160008130D1F3C2E0C09360008091AB
:100A00007904809393030E94B003C09361002FEF99
:100A100081EE94E0215080409040E1F700C000005A
:100A20000E947B018CE00E94E40084E092E00E943E
:100A3000850161E082E00E94A001809193038823F8
:100A400009F44DC0C0E02C2F30E0F901E658FB4F0F
:100A50008081F901EA59FB4F80830E940B01CF5F2F
:100A600080919303C81778F33AC02193E817F907E8
:100A7000E1F70E94EB032FEF83ED90E321508040DC
:100A80009040E1F700C000000E940C0481E08093D8
:100A9000600082E0809361000E94C103809177042E
:100AA000809393030E94CC0382E60E940B0184E6AC
:100AB00080936004109279040E947B018CE00E9474
:100AC000E40084E192E00E94850161E082E00E94FE
:100AD000A001C2E0C09394030E940906FBCFEAE79D
:100AE000F4E08AE894E02AE2C0CF8CE00E94E400BF
:100AF00080916004843609F08BC080916000823060
:100B000009F086C081E08093600080917904882399
:100B1000A1F0EAE7F4E0A6E6B4E0815090E0855861
:100B20009B4F20E041913D91431302C02F5F01C0D4
:100B30002150E817F907B1F701C020E03FEF81EE3F
:100B400094E0315080409040E1F700C0000082E323
:100B5000809360048091930328132CC080919503A7
:100B6000982F9F5F90939503953011F40E94BB04DA
:100B700080939503EAE7F4E08AE894E02AE221937F
:100B8000E817F907E1F70E940E030E947B0184E257
:100B900092E00E9485012FEF33E284EF2150304034
:100BA0008040E1F700C000000E94FC020E947B012F
:100BB0000E940C04809192038F5F80939203843093
:100BC00071F40E947B0182E392E00E94850183E43C
:100BD00092E00E9485010E9468030E940C040E941A
:100BE0007B0182E392E00E94850163E082E00E9443
:100BF000A00184E592E00E9485019FEF2BE43DE196
:100C0000915020403040E1F700C000000E94BB043A
:100C100008952F923F924F925F926F927F928F92A0
:100C20009F92AF92BF92CF92DF92EF92FF920F937B
:100C30001F93CF93DF93C0E0D0E0EE24E394F12C38
:100C40006894222421F80F2EF3E43F2EF02D0F2E6E
:100C5000F2E44F2EF02D0F2EF1E45F2EF02D0F2E2B
:100C6000F0E36F2EF02D0F2EF9E37F2EF02D0F2ED7
:100C7000F8E38F2EF02D0F2EF7E39F2EF02D0F2E81
:100C8000F6E3AF2EF02D0F2EF5E3BF2EF02D0F2E35
:100C9000F4E3CF2EF02D0F2EF3E3DF2EF02D8FE9AE
:100CA0009FE00197F1F700C0000087010C2E02C001
:100CB000000F111F0A94E2F7802F809585BB8FE902
:100CC0009FE00197F1F700C0000083B38F608F3F72
:100CD00009F452C29FEF29EF80E0915020408040FC
:100CE000E1F700C000008EE00E94E40083B38F6053
:100CF0008F3F09F441C200950F70807F082B83B3AA
:100D00008F608F3FE1F79FEF29EF80E09150204007
:100D10008040E1F700C000000E3B09F462C0C0F45F
:100D20000E3709F46AC050F40B3709F46EC00D3762
:100D300009F467C0073709F06CC026C20B3B09F401
:100D400058C00D3B09F451C0073B09F062C01AC2FC
:100D50000E3DB9F140F40B3DE1F10D3DB1F1073D20
:100D600009F057C03AC00B3E91F020F4073E09F05D
:100D700050C051C00D3E39F00E3E09F04AC00E94ED
:100D80005703192D49C00E9446031C2D45C00E94DF
:100D90003503E0917904F0E0E658FB4F81E380836E
:100DA0000E940B01809179048F5F8093790480E128
:100DB0000E94E4008AE20E940B010E94750511E383
:100DC0005DC00E945703182D27C00E9446031B2DAB
:100DD00023C00E94350312E31FC00E943503162D65
:100DE0001BC00E945703172D17C00E9446031A2DDF
:100DF00013C00E9435031D2D0FC00E945703152DEF
:100E00000BC00E944603142D07C00E943503132D0A
:100E100003C018E501C01AE21233B9F4E091790475
:100E2000F0E0E658FB4F82E380830E940B01809143
:100E300079048F5F8093790480E10E94E4008AE264
:100E40000E940B010E94750532C01333B9F4E09182
:100E50007904F0E0E658FB4FD0828D2D0E940B0103
:100E6000809179048F5F8093790480E10E94E4008F
:100E70008AE20E940B010E94750532C01433B9F456
:100E8000E0917904F0E0E658FB4FC0828C2D0E947F
:100E90000B01809179048F5F8093790480E10E9437
:100EA000E4008AE20E940B010E94750532C01533EE
:100EB000B9F4E0917904F0E0E658FB4FB0828B2D55
:100EC0000E940B01809179048F5F8093790480E107
:100ED0000E94E4008AE20E940B010E94750532C064
:100EE0001633B9F4E0917904F0E0E658FB4FA082A4
:100EF0008A2D0E940B01809179048F5F8093790481
:100F000080E10E94E4008AE20E940B010E947505C4
:100F100032C01733B9F4E0917904F0E0E658FB4FA2
:100F20009082892D0E940B01809179048F5F8093BC
:100F3000790480E10E94E4008AE20E940B010E9491
:100F4000750532C01833B9F4E0917904F0E0E65841
:100F5000FB4F8082882D0E940B01809179048F5F66
:100F60008093790480E10E94E4008AE20E940B01F0
:100F70000E94750532C01933B9F4E0917904F0E0AC
:100F8000E658FB4F7082872D0E940B0180917904F7
:100F90008F5F8093790480E10E94E4008AE20E94DE
:100FA0000B010E94750532C01033B9F4E091790449
:100FB000F0E0E658FB4F6082862D0E940B01809185
:100FC00079048F5F8093790480E10E94E4008AE2D3
:100FD0000E940B010E94750532C01134B9F4E091F2
:100FE0007904F0E0E658FB4F5082852D0E940B01FA
:100FF000809179048F5F8093790480E10E94E400FE
:101000008AE20E940B010E94750532C01234B9F4C5
:10101000E0917904F0E0E658FB4F4082842D0E9475
:101020000B01809179048F5F8093790480E10E94A5
:10103000E4008AE20E940B010E94750577C0133418
:10104000B9F4E0917904F0E0E658FB4F3082832D4B
:101050000E940B01809179048F5F8093790480E175
:101060000E94E4008AE20E940B010E94750584C080
:10107000143409F049C010929203809161008230CB
:1010800011F50E947B018CE00E94E40081E692E071
:101090000E94850163E082E00E94A0018AE392E061
:1010A0000E9485019FEF23ED80E391502040804016
:1010B000E1F700C0000081E08093600084E080934D
:1010C00095030E94BB040E947B018CE00E94E40017
:1010D0008FE692E00E94850163E082E00E94A00119
:1010E0008AE392E00E9485019FEF23ED80E3915017
:1010F00020408040E1F700C0000081E08093600064
:10110000809364040E94BB04133281F480917904BB
:10111000882391F18EE00E94E40080E10E94E400C7
:101120008091790481508093790426C01A3221F588
:1011300080917904882301F1809194038130E1F05A
:101140000E947B018CE00E94E4000E94200367E083
:1011500081E00E94A0018EE792E00E94850120922A
:1011600060009FEF29E688E1915020408040E1F740
:1011700000C000000E9475052196C430D10509F019
:101180008ECD04C013E248CE14E446CEDF91CF9159
:101190001F910F91FF90EF90DF90CF90BF90AF9095
:1011A0009F908F907F906F905F904F903F902F9087
:1011B0000895C6B3C3790E947B01979881E892E0B5
:1011C0000E94850161E082E00E94A00182E992E034
:1011D0000E9485012FEF87EA91E6215080409040E0
:1011E000E1F700C0000086B387788C17E1F30E9416
:1011F0000C04FF920F931F93CF93DF9300EE10E642
:10120000D0EAC0E26894FF24F6F802BB2FEF8DEE1F
:1012100092E0215080409040E1F700C0000012BBF6
:101220002FEF8DEE92E0215080409040E1F700C01A
:10123000000086B3807886BB803811F40E94BB041E
:1012400086B3887086BB811102C00E945409D2BB4C
:101250002FEF8DEE92E0215080409040E1F700C0EA
:101260000000C2BB2FEF8DEE92E0215080409040F5
:10127000E1F700C0000086B3837186BB90916104E2
:10128000891309C0F8BA86B3807486BB803409F02C
:10129000BCCF0E94D90882B3837082BBDF91CF910B
:1012A0001F910F91FF9008951F93CF93DF93D0EA82
:1012B000C0E210E4D2BB2FEF8DEE92E021508040CF
:1012C0009040E1F700C0000086B3807886BB80388C
:1012D00011F40E94BB0486B3887086BB883011F479
:1012E0000E94F908C2BB2FEF8DEE92E021508040A2
:1012F0009040E1F700C0000086B3837186BB9091F7
:101300006104891308C018BB86B3807486BB80341F
:1013100089F60E94D90882B3837082BBDF91CF9196
:101320001F9108951F93CF93DF9310ECC0E4D0E892
:1013300012BB2FEF8DEE92E0215080409040E1F7FC
:1013400000C00000C2BB2FEF8DEE92E02150804024
:101350009040E1F700C0000086B3807886BB8038FB
:1013600011F40E94BB04D2BB86B3887086BB811186
:1013700002C00E94E5092FEF8DEE92E021508040DF
:101380009040E1F700C0000012BA2FEF8DEE92E01E
:10139000215080409040E1F700C0000086B3837187
:1013A00086BB90916104891309C0C8BB86B3807461
:1013B00086BB803409F0BCCF0E94D90882B3837009
:1013C00082BBDF91CF911F910895CF93DF93C0E847
:1013D000D0E4C2BB2FEF8DEE92E0215080409040D0
:1013E000E1F700C0000086B3807886BB803811F436
:1013F0000E94BB0486B3887086BB883011F40E94BB
:10140000920912BA2FEF8DEE92E021508040904069
:10141000E1F700C0000086B3837186BB9091610440
:10142000891308C0D8BB86B3807486BB803489F624
:101430000E94D90882B3837082BBDF91CF91089557
:101440000E94EF0184E890E00E94FA012FEF3FE054
:1014500087E2215030408040E1F700C000000E9448
:101460007B0186B383719091610498130E940C04F0
:1014700081EB92E00E94850162E082E00E94A0017F
:1014800080916204813019F0823069F516C08EEBCC
:1014900092E00E94850189E890E00E94FA019FEFA6
:1014A0002FE037E2915020403040E1F700C00000CB
:1014B0008DEC92E00E94FA012BC082EE92E00E9435
:1014C000850189E890E00E94FA018FEF9FE027E212
:1014D000815090402040E1F700C0000081EF92E091
:1014E0000E94FA0115C085E790E00E94850189E815
:1014F00090E00E94FA013FEF8FE097E23150804088
:101500009040E1F700C0000086E093E00E94FA01FD
:101510002FEF33E284EF90E0215030408040904044
:10152000D9F700C000000E947B018BE193E00E948C
:1015300085010895CF9386B38B7990E0FC013197B4
:10154000EB39F10508F0B2C0E65DFF4F0C945A0C80
:1015500081E080938B042FEF3BE782E921503040FC
:101560008040E1F700C0000086B3813009F09CC1E3
:101570004FC081E080938C049FEF2BE732E99150BC
:1015800020403040E1F700C0000086B3823009F00F
:101590008DC17FC081E080937604C3E388C081E081
:1015A00080938B04C4E383C081E080938C04C5E303
:1015B0007EC081E080937604C6E379C081E08093A9
:1015C0006304C1E474C081E080938A04C2E46FC004
:1015D00081E080936504C3E46AC081E08093630482
:1015E000C4E465C081E080938A04C5E460C081E002
:1015F00080936504C6E45BC081E080939103C7E4F7
:1016000056C081E080939103C8E451C00E94BB049E
:1016100081E0809362040E947B0188E293E00E9453
:1016200085010E94E0020E94200A8FEF99E522E6E0
:1016300032E08150904020403040D9F700C0000097
:101640000E94B0028FEF9FE423EC81509040204035
:10165000E1F700C000000E94200A109262043FEFF0
:1016600089E592E622E03150804090402040D9F751
:1016700000C000000E94B0020E9415020E947B017F
:1016800088E293E00E9485010E94E5090E947B01A7
:101690000BC10E947B0186E393E00E9485010E94BA
:1016A000EE020E9454090E947B0100C1C8E5C333C9
:1016B00081F482E0809362040E947B0183E493E0E2
:1016C0000E9485010E94E0020E94E5090E947B01C0
:1016D00039C0C433E1F43FEF8BE792E931508040E9
:1016E0009040E1F700C0000086B38930E9F581E061
:1016F000809362040E947B0188E293E00E9485014E
:101700000E94E7020E9492090E947B012DC0C5330E
:10171000C9F42FEF3BE782E9215030408040E1F7E8
:1017200000C0000086B38A30C1F50E947B0186E3C9
:1017300093E00E9485010E94F5020E94F9080E9430
:101740007B012BC0C63381F482E0809362040E9447
:101750007B0183E493E00E9485010E94E7020E94DE
:1017600092090E947B0128C0C134B9F49FEF2BE796
:1017700032E9915020403040E1F700C0000086B3CC
:101780000E947B0181E593E00E9485010E94E002B6
:101790000E94E5090E947B011EC0C23469F40E94C8
:1017A0007B0181E693E00E9485010E94E0020E9495
:1017B000E5090E947B0128C0C33469F40E947B01C3
:1017C00081E793E00E9485010E94EE020E94540985
:1017D0000E947B0128C0C434B9F48FEF9BE722E953
:1017E000815090402040E1F700C0000086B30E9485
:1017F0007B0181E593E00E9485010E94E7020E943F
:1018000092090E947B011EC0C53469F40E947B01CD
:1018100081E693E00E9485010E94E7020E949209FE
:101820000E947B0126C0C63469F40E947B0181E7D7
:1018300093E00E9485010E94F5020E94F9080E942F
:101840007B012EC0C734A9F40E947B0181E893E09C
:101850000E94850165E082E00E94A0018DE393E093
:101860000E9485010E94E0020E94E5090E947B011E
:101870001FC0C834A9F40E947B0181E893E00E9454
:10188000850165E082E00E94A0018DE393E00E9463
:1018900085010E94E7020E9492090E947B0108C014
:1018A000C83531F40E940C04C1E313CFC2E32FCF3B
:1018B000CF910895EE0FFF1F0590F491E02D09944C
:0418C000F894FFCFCA
:1018C4000101534D532053656E64696E672E2E2EAD
:1018D4002000546F202B39373739383431343931BB
:1018E4003332320041540D0A00415445300D0A0090
:1018F40041542B434D47463D310D0A0041542B437F
:101904004D47533D222B3937373938343134393147
:10191400333232220D0A004D6573736167652046C8
:10192400726F6D20486F6D652053656375726974BD
:10193400792053797374656D3A0A0046697265209B
:10194400616C65727421212100466972652B4C50CB
:101954004720616C65727421212100466972652BF0
:101964004761746520616C657274212121004669A8
:1019740066652B4C50472B4761746520616C65721A
:101984007421212100204D657373616765205365BF
:101994006E742020005375636365737366756C6C95
:1019A40079212121004154480D0A00202043616C13
:1019B4006C2041626F727465640041542B434D473F
:1019C400443D310D0A00436C6F73696E672E2E2EF1
:1019D4002E2E004F70656E696E672E2E2E2E2E00F1
:1019E4004D6573736167652046726F6D3A00526589
:1019F40063656976656420534D532069733A0052D8
:101A04006563656976656420446174653A00496E6E
:101A1400697469616C697A696E672E2E2E2E0020B6
:101A24004E4F5448494E472048415050454E00546B
:101A3400454D503A002A2054454D502E2053454ED2
:101A4400534F52202A0023204E4F5420574F524BBD
:101A5400494E472023005365742050617373776F98
:101A640072643A0055722050617373776F72642008
:101A740069733A00456E7465722050617373776FB1
:101A840072643A0020202057454C434F4D45212194
:101A94002100494E56414C49442050617373776F7D
:101AA400726400446F6E2774205472792041676118
:101AB400696E210054727920416761696E2E2E2E61
:101AC400005430204348414E474520544845004681
:101AD400697273742053657420596F7572004F4B8B
:101AE40000494E5645535449474154494E472E2EBA
:101AF4002E0053595354454D20574F524B494E478E
:101B04002E2E0041542B434D47523D310D0A0061A6
:101B14000043616C6C696E672E2E2E2020002B39D9
:101B2400373739383439393134303738004154444F
:101B34002B393737393834393931343037383B0D6C
:101B44000A002B39373739383433373135373632A1
:101B5400004154442B39373739383433373135372A
:101B640036323B0D0A004154442B39373739383467
:101B7400313439313332323B0D0A00202020202009
:101B8400446F6E6521212100202020466972652062
:101B9400416C657274002020204C504720416C65D4
:101BA4007274002020204761746520416C65727452
:101BB4000020466972652B4C504720416C65727455
:101BC40000466972652B4761746520416C657274C7
:101BD40000204C50472B4761746520416C6572743A
:101BE40000466972652B4C50472B476174650000B1
:00000001FF
